:020000040000FA
:1000000008100020C1000000C9000000CB00000063
:10001000CD000000CF000000D10000000000000073
:10002000000000000000000000000000D3000000FD
:10003000D500000000000000D7000000D90000003B
:10004000DB000000DB000000DB000000DB00000044
:10005000DB000000DB000000DB000000DB00000034
:10006000DB000000DB000000DB000000DB00000024
:10007000DB000000DB000000DB000000DB00000014
:10008000DB000000DB000000DB000000DB00000004
:100090000000000000000000000000000000000060
:1000A0000000000000000000000000000000000050
:1000B000DB00000000000000DB000000DB000000AF
:1000C0000948804709480047FEE7FEE7FEE7FEE7EC
:1000D000FEE7FEE7FEE7FEE7FEE7FEE70448054928
:1000E000054A064B704700003D0100000901000071
:1000F0000800002008100020080C0020080C002038
:1001000070477047704700004FF000004FF001014A
:100110004FF000534FF00A04012C01D102460BE0CE
:10012000022C01D10A4607E0A4F1010401EB000210
:1001300008461146022CF7D11A60000004480068F6
:1001400040F47000024908600248034908607047A3
:1001500088ED00E040787D010000002040787D01BE
:0400000500000109ED
:00000001FF
